:0400000002001132B7
:03000B000202F4FA
:03006A0002000E83
:03000E0002006D80
:20006D00439140439240439180439280120CE81202AA1202E275822112038E1203EB5008D4
:20008D0012029112040740FB12020C75821A12111130790BE5327007E531700312011230D1
:2000AD007814E53BB5330FE53CB5320A7403B53105755200D2001200E7E552700B3004089C
:2000CD00200005C204120FA612050880C4858247E54760051204E480F722300027C2957569
:2000ED0082421200DAD2957582211200DAC2957582421200DAD29575821F12111112044352
:20010D0050D8C20022A27F9201C212120F39AF33AE3DAD3EA2019212C007C006C005120F72
:20012D0039D005D006D007C3ED9E400BEF9E4014ED9F4010020152C3EF9E5005C3ED9F4018
:0B014D00030201522275821D021111F5
:20015800AF828FF005F07401800225E0D5F0FB429D75BD0075BC8022AF8274A84FF5BC00F5
:20017800E5BC30E4FB53BCEFAEBD7F00EE2EFEEF33FFEE2EFEEF33FFACBE5304037D00EC2C
:1E0198004206ED42078E828F8322AF8274A84FF5BC00E5BC30E4FB53BCEF85BD8222A6
:2001B60000000022C292C2901201B6D29022AF827E00C291EF5401FD24FF92911201B6C200
:2001D600921201B6D292EFC313FF0EBE080040E2227F007E00D2921201B6C2921201B6A285
:2001F60091E433035480FDEFC313FC4DFF0EBE080040E28F82221201BA7582BF1201C47A63
:200216000779311201E7A78209DAF80201BA1201BA7582BE1201C47A07793187821201C4F8
:2002360009DAF87582001201C40201BA1201BA7582BF1201C47A0379311201E7A78209DABB
:20025600F80201BA1201BA7582FF1201C47A0A79381201E7A78209DAF81201BA853A2F2229
:200276001201BA852F3A7582FE1201C47A0A793887821201C409DAF80201BA7A11790078B8
:2002960031901260E993F60809DAF9120224853A2F0202761201BA7A05797187821201C409
:2002B60009DAF81201E7E582547FFF758280C0071201C4D0078F821201C41201BA12025A0B
:0C02D600E5396538FFBFFF0122020291EC
:161260005559A71231011655AAE0880088A56301008E0090008132
:2002E200438E80758CFB758AAFC28DD28CD2A9D2AF22C023C0E0C0F0C082C083C007C006F1
:20030200C005C004C003C002C001C000C0D075D000120490E542FF14F542EF700C75423C02
:20032200E5476005E54714F547E543FF14F543EF70347543C8120396E54A6005E54A14F5B1
:200342004AE544FF14F544EF700E75440AB206E5466005E54614F546E545FF14F545EF7014
:2003620005754532B205E54C6005E54C14F54CD0D0D000D001D002D003D004D005D006D082
:2003820007D083D082D0F0D0E0D02332858247E54770FC22E54825E0FFA2B1E4334F44E004
:2003A200F54874F0B54802D202E54925E0FFA2B0E4334F44E0F54974E0B54904740180012F
:2003C200E4FFE54AB401009207E4335F6005754A12D203E54B25E0FFA294E4334F44E0F551
:2003E2004B74F0B54B02D2042274E0B5480474018001E4FF74E0B5490474018001E45F6035
:2004020002D322C322C202C20374FFB5480474018001E4FF74FFB5490474018001E45F601A
:2004220002C322D32274E0B54902D322A206221002028002D322C3221003028002D322C30C
:20044200221004028002D322C322AF82100201228F5222AF82100201228F522008021552C5
:20046200740CB54D0122854D82020B3DAF82100301228F5222AF82100301228F522009025A
:0E0482001552740CB54E0122854E82020B3DC0
:20049000E55F601FAF5E8FF005F07404800225E0D5F0FBF452B0E55E245AF987A0E55F141A
:2004B000F55F22E560600943B03CE56014F56022E55E04FF8F5EBF04004003755E00855820
:2004D0005F74C1255F500475600122AF5F743FC39FF56022C20AA205920BA205920CA20E09
:2004F000920D12020C853382120BC9853250D211120DA5C211020DE87582061201A2E5827C
:200510000303543FFF7E008F828E83120E5A858258A20F82055010758207120170120E89F8
:20053000858259C20F8005200502D20FE55224D05003020AD9E552240B83F582E55224349B
:2005500083F583E473B5E81E4A697B8DA6BFD1E30D2E406E8D9FBFDFF71F41536D859DAE10
:20057000BFD7EF071F3041715A88B5A1C9F6E20A1C477393AF0505060606060606060606A3
:20059000070707070707070707080808080808080808080909090909090909090909090A46
:2005B0000A0A0A0A0A1204E475820512044C12043A50067546C87552017430B531028001A3
:2005D0002275461E307C03755204307B03755203207A012275520222C20AA205920BC20C98
:2005F000C20D12020C85324F853150120DA5120DE875820012044C12043A5009753100126B
:2006100002247546C8E54660012275520022120C4375820512044C12043AE5466001227558
:20063000461E307C03755204307B03755203307B0122307C012275520022120C9C75820518
:2006500012044C12043AE54660012275461E307C047552042275520022120CC0E546700250
:20067000F55275820512044C02043A758200120ADD75820612044C75820902046E758201CA
:20069000120ADD75820712044C754E01A2789209758218020477758202120ADD75820812E9
:2006B000044C754E05A27A920975821C020477758203120ADD75822F12044C758221020432
:2006D0006E758200120B3D75820C12044C75820A02046ED20BD20CA20E920D120DAB120D7E
:2006F000E875820B12044C12043A400122853382120CF5AF828F33120BC9D21022120DA5FD
:20071000120DEE75820C12044C12043A400122855082120D18858250855032D210227582BD
:2007300001120B3D75820F12044C75820D02046ED20BD20CA20E920D853B82120BC9853C7B
:2007500050120DAB120DE875820E12044C12043A400122853B82120CF5E582F53B22120D21
:20077000A5120DEE75820F12044C12043A400122855082120D1885825085503C227582028B
:20079000120B3D75821212044C75821002046E120BE6120DAB120DE875821112044C1204B5
:2007B0003A400122853D82120CF5E582F53D22120BE6120DA5120DEE75821212044C120425
:2007D0003A400122853E82120CF5E582F53E22D20BC20CC20D758203120B3D758215120468
:2007F0004C75821302046E120C1E120DAB120DE875821412044C75822F12044C12043A408D
:200810000122756100854F82120D2785824F22120C1E120DA5120DEE75821512044C12042A
:200830003A400122756102855082120D2785825022758204120B3D75822F12044C75821633
:2008500002046E120CAB75822F12044C12043A400122853682120D7AE582F53622120BB8B1
:20087000C278754D02A279920875821A12045575821802046E120BA7D278754D02A2799237
:200890000875821A12045575821702046E120BB8C27975822F12044C75821A02046E120B08
:2008B000A7D27975822F12044C75821902046E120BB8C27A754D03A27B920875821E120472
:2008D0005575821C02046E120BA7D27A754D03A27B920875821E12045575821B02046E1288
:2008F0000BB8C27B754D04A27C920875822012045575821E02046E120BA7D27B754D04A2E6
:200910007C920875822012045575821D02046E120BB8C27C75822F12044C75822002046E81
:20093000120BA7D27C75822F12044C75821F02046E758204120ADD75822412044C754E0C43
:20095000A27F9209758223020477758206120B72D212120F3975822412044C7582220204CE
:200970006E758207120B72C212120F3975822412044C75822302046E75820A120ADD758242
:200990002712044C754E0CA27D9209758226020477758208120B72D27D75822712044C75C9
:2009B000822502046E758209120B72C27D75822712044C75822602046E758209120ADD75BF
:2009D000822A12044C754E0CA27E9209758229020477758205120ADDD27E75822A12044C0A
:2009F00075822802046E758206120ADDC27E75822A12044C75822902046E758207120ADD10
:200A100075822D12044C75822B02046ED20BC20CC20D853F4F854050120DAB120DE8758240
:200A30002C12044C12043A400122854F82120D8985825185513F22854050120DA5120DEEF2
:200A500075822D12044C12043A400122855082120D89858251C3E53F95515003755101858A
:200A7000514022AF3FC3EF954050068F4075522B22758208120ADD75822F12044C75822E60
:200A900002046E120C4375822F12044C12043A503BAF41BF0F047541F122EF04F541221226
:200AB0000CE82010051202428005753100C210120224120276754606E54670FC1204311237
:200AD000043A1204437552002275520022E582258225E0FFFD3395E0FEED248EF582EE34B0
:200AF00012F583E493FE8E5AEF04FE3395E0FDEE248EF582ED3412F583E493FE8E5B7402D3
:200B10002FFE3395E0FDEE248EF582ED3412F583E493FE8E5C0F0F0FEF3395E0FEEF248E6F
:200B3000F582EE3412F583E493FF8F5D22E5822582FFFD3395E0FEED2476F582EE3412F527
:200B500083E493FE8E5A0FEF3395E0FEEF2476F582EE3412F583E493FF8F5B755CFF755D53
:200B7000FF22AF82755AFF755BFFEF2FFFFD3395E0FEED2476F582EE3412F583E493FE8E09
:200B90005C0FEF3395E0FEEF2476F582EE3412F583E493FF8F5D2290128CE493FF8F5C90F6
:200BB000128DE493FF8F5D2290128AE493FF8F5C90128BE493FF8F5D22AF82307F13741F3E
:200BD0005FF54F8F055305207E00ED4E24FF920E228F4FC20E22307F28741F553DF54FAEFA
:200BF0003D5306207F00EE4F24FF920B741F553EF550AE3E5306207F00EE4F24FF920D80E5
:200C10000A853D4FC20B853E50C20DC20C22307E0885354F853450800685344F853550D2D8
:200C30000B22307E07854F3585503422854F3485503522AF59E5412FF582120EDF85824F31
:200C5000AE4F5306F0E4C4CEC4540F6ECE540FCE6ECE30E30244F0FFEE24D2F582EF341220
:200C7000F583E493FF8F5AAE4F53060F7F00EE24D2F582EF3412F583E493FF8F5B307D058F
:200C9000755C318003755C70755DFF22D20BC20CC20D120C1E120DA5020DE812042750038A
:200CB000020CC0755AFF755BFF755CFF755DFF22C20BC20CC20D85364F755AFF785BA94FE9
:200CD00019E92929F97A039012BA307E03A3A3A3E993F60809DAF922755AFF755BFF755C5E
:200CF000FF755DFF22AF82307F078F82120F20AF82EF2401D4FFBF24027F00307F078F8276
:200D1000120F14AF828F8222E582FF2401D4FFBF60027F008F8222AF82E5617015307E0946
:200D30008F82120D58AE82801C8F82120D69AE828013307E098F82120D69AE8280078F82DB
:200D5000120D58AE828E8222E582FF2401D4FFBF13027F018F358F8222E582FF2401D4FFA3
:200D7000BF32027F018F348F8222E582FF2401D4FFBF08027F018F8222E582FF2401D4FFC2
:200D90008F82C007120EB9AE82D007EE24C050027F018F8222D38006C3800312042774FF65
:200DB0003400F55374FFA20AB313F55474FFA20BB313F5559012D2E54FC4540F30110670C3
:200DD0000474FF80059345535554F55A740F554F9345535555F55B22D38006C380031204C1
:200DF0002774FF3400F55374FFA20CB313F55674FFA20DB313F557E550C4540F9012DC93FA
:150E100045535556F55C740F55509012D29345535557F55D2252
:20127600C6C788C7C689A188A191878CCFA4A499FF8EFFC69C8E9CAB9286B8FF8386B08C38
:20129600A192A1FFC68E82FFF924A499F92486F9B079CFA483AFB8FFC688F8FFA188B88669
:2012B6008786C98C92DCABC99CAB87DC8481A0A18799E38EBDFB92848792DCABC0F9A4B0D8
:1012D600999282F88090C0CFA4868B9290C7808224
:200E2500E562C39564F582E5639565F583E56AC39568F56CE56B9569F56D12115BE566C3CD
:200E45009564F56CE5679565F56D121224AE82E5682EF5822285826285836375643F756539
:200E650000756601756700854082120EB9AF828F68756900853F82120EB9AF828F6A756B66
:200E850000020E258582628583637564F2756502756619756701307D0E75682075690075C1
:200EA5006A7B756B00800AE4F568F569756A33F56B020E25AF828F055305F0E4C4CDC454FE
:200EC5000F6DCD540FCD6DCD30E30244F0ED75F00AA4FD740F5F2DF58222AF827E00756CDC
:200EE5000A8E6D8F828E83C007C006121224AC82D006D007756C0A756D008F828E83C00463
:200F05001211EEAE82D004ECC454F04EF58222120EB9E5829012E693F58222AF827E00EE4B
:200F25009012E693B5070280060EEE24E850F08E82020EDFA212207F01B34064301231D216
:200F450010D27FD27ED27D853382120F14E582F533853B82120F14E582F53B853D82120F1B
:200F650014E582F53D853E82120F14E582F53E22D210C27FC27EC27D853382120F20E58205
:200F8500F533853B82120F20E582F53B853D82120F20E582F53D853E82120F20E582F53ECC
:010FA5002229
:1812E600928182838485868788899091B2A1A2A3A4A5A6A7A8A9B0B1B0
:200FA600207F0302105D741F5533F582120EB9AF82853282C007120EB9AE82D007EE700B35
:200FC6008F8212111112110202105DBE0100B39213EE24F6B39214A213821450198F82C035
:200FE6000612111175821A121111D0068E821211111211028061BE0A00B39214EE24EBB37B
:201006009213A214821350138F82C006121111D0068E82121111121102803C8F82C0061288
:201026001111D0067F00756C0A8F6D8E828F83C007C006121224AC8274122CF582121111CA
:20104600D006D007756C0A756D008E828F831211EE121111121102307F0122853382120E58
:20106600B9AF82853282C007120EB9AE82D007EE700B8F82121111758218021111BE010000
:20108600B39214EE24F6B39213A214821350148F82C00612111175821A121111D0068E82AC
:2010A600021111BE0A00B39214EE24EBB39213A2148213500E8F82C006121111D0068E82F6
:2010C6000211118F82C006121111D0067F00756C0A8F6D8E828F83C007C006121224AC827A
:2010E60074122CF582121111D006D007756C0A756D008E828F831211EE021111300E067503
:20110600821C02111175821B021111AF82C00712114CD0077E00C3EE9F500EC007C00612C8
:20112600113AD006D0070E80ED3093051204E480F802114CD2B7121144C2B7021144754C1C
:1511460005E54C70FC22C2B6121144D2B6121144C2B602114433
:06004000E478FFF6D8FD94
:20001E007900E94400601B7A009012FE780175A000E493F2A308B8000205A0D9F4DAF27578
:02003E00A0FF21
:1D115B00E582856CF0A4C582C0F0856DF0A4D0F025F0C583856CF0A42583F583222A
:20117800E56C456D60467A01E56C25E0F56CE56D334012F56DE582956CE583956D40030A24
:2011980080E6C3E56D13F56DE56C13F56CC3E582956CF5F0E583956D4005F58385F082C391
:0D11B800E56D13F56DE56C13F56CDAE122C1
:2011C5007A10E4FBFCE58225E0F582E58333F583EB33FBEC33FCEB956CF5F0EC956D400676
:0911E500FCABF0438201DADD22CB
:200046007800E84400600A790175A000E4F309D8FC7800E84400600C7900900001E4F0A3B8
:04006600D8FCD9FAEF
:0D00110075816D12125CE582600302000E25
:2011EE00C2D5E58330E70DD2D5E4C39582F582E49583F583E56D30E70BE4C3956CF56CE40D
:16120E00956DF56D12117830D50BE4C39582F582E49583F58322F0
:20122400C2D5E58330E70DD2D5E4C39582F582E49583F583E56D30E70DB2D5E4C3956CF59D
:181244006CE4956DF56D1211C530D50BE4C39582F582E49583F583221B
:04125C007582002275
:00000001FF
